{
  "abi": [
    {
      "inputs": [
        {
          "internalType": "address",
          "name": "_dappTokenAddress",
          "type": "address"
        }
      ],
      "stateMutability": "nonpayable",
      "type": "constructor"
    },
    {
      "anonymous": false,
      "inputs": [
        {
          "indexed": true,
          "internalType": "address",
          "name": "previousOwner",
          "type": "address"
        },
        {
          "indexed": true,
          "internalType": "address",
          "name": "newOwner",
          "type": "address"
        }
      ],
      "name": "OwnershipTransferred",
      "type": "event"
    },
    {
      "inputs": [
        {
          "internalType": "address",
          "name": "_token",
          "type": "address"
        }
      ],
      "name": "addAllowedTokens",
      "outputs": [],
      "stateMutability": "nonpayable",
      "type": "function"
    },
    {
      "inputs": [
        {
          "internalType": "uint256",
          "name": "",
          "type": "uint256"
        }
      ],
      "name": "allowedTokens",
      "outputs": [
        {
          "internalType": "address",
          "name": "",
          "type": "address"
        }
      ],
      "stateMutability": "view",
      "type": "function"
    },
    {
      "inputs": [],
      "name": "dappToken",
      "outputs": [
        {
          "internalType": "contract IERC20",
          "name": "",
          "type": "address"
        }
      ],
      "stateMutability": "view",
      "type": "function"
    },
    {
      "inputs": [
        {
          "internalType": "address",
          "name": "_token",
          "type": "address"
        }
      ],
      "name": "getTokenValue",
      "outputs": [
        {
          "internalType": "uint256",
          "name": "",
          "type": "uint256"
        },
        {
          "internalType": "uint256",
          "name": "",
          "type": "uint256"
        }
      ],
      "stateMutability": "view",
      "type": "function"
    },
    {
      "inputs": [
        {
          "internalType": "address",
          "name": "_user",
          "type": "address"
        },
        {
          "internalType": "address",
          "name": "_token",
          "type": "address"
        }
      ],
      "name": "getUserSingleTokenValue",
      "outputs": [
        {
          "internalType": "uint256",
          "name": "",
          "type": "uint256"
        }
      ],
      "stateMutability": "view",
      "type": "function"
    },
    {
      "inputs": [
        {
          "internalType": "address",
          "name": "_user",
          "type": "address"
        }
      ],
      "name": "getUserTotalValue",
      "outputs": [
        {
          "internalType": "uint256",
          "name": "",
          "type": "uint256"
        }
      ],
      "stateMutability": "view",
      "type": "function"
    },
    {
      "inputs": [],
      "name": "issueToken",
      "outputs": [],
      "stateMutability": "nonpayable",
      "type": "function"
    },
    {
      "inputs": [],
      "name": "owner",
      "outputs": [
        {
          "internalType": "address",
          "name": "",
          "type": "address"
        }
      ],
      "stateMutability": "view",
      "type": "function"
    },
    {
      "inputs": [],
      "name": "renounceOwnership",
      "outputs": [],
      "stateMutability": "nonpayable",
      "type": "function"
    },
    {
      "inputs": [
        {
          "internalType": "address",
          "name": "_token",
          "type": "address"
        },
        {
          "internalType": "address",
          "name": "_priceeFeed",
          "type": "address"
        }
      ],
      "name": "setPriceFeedContract",
      "outputs": [],
      "stateMutability": "nonpayable",
      "type": "function"
    },
    {
      "inputs": [
        {
          "internalType": "uint256",
          "name": "_amount",
          "type": "uint256"
        },
        {
          "internalType": "address",
          "name": "_token",
          "type": "address"
        }
      ],
      "name": "stakeTokens",
      "outputs": [],
      "stateMutability": "nonpayable",
      "type": "function"
    },
    {
      "inputs": [
        {
          "internalType": "uint256",
          "name": "",
          "type": "uint256"
        }
      ],
      "name": "stakers",
      "outputs": [
        {
          "internalType": "address",
          "name": "",
          "type": "address"
        }
      ],
      "stateMutability": "view",
      "type": "function"
    },
    {
      "inputs": [
        {
          "internalType": "address",
          "name": "",
          "type": "address"
        },
        {
          "internalType": "address",
          "name": "",
          "type": "address"
        }
      ],
      "name": "stakingBalance",
      "outputs": [
        {
          "internalType": "uint256",
          "name": "",
          "type": "uint256"
        }
      ],
      "stateMutability": "view",
      "type": "function"
    },
    {
      "inputs": [
        {
          "internalType": "address",
          "name": "_token",
          "type": "address"
        }
      ],
      "name": "tokenIsAllowed",
      "outputs": [
        {
          "internalType": "bool",
          "name": "",
          "type": "bool"
        }
      ],
      "stateMutability": "view",
      "type": "function"
    },
    {
      "inputs": [
        {
          "internalType": "address",
          "name": "",
          "type": "address"
        }
      ],
      "name": "tokenPriceFeedMapping",
      "outputs": [
        {
          "internalType": "address",
          "name": "",
          "type": "address"
        }
      ],
      "stateMutability": "view",
      "type": "function"
    },
    {
      "inputs": [
        {
          "internalType": "address",
          "name": "newOwner",
          "type": "address"
        }
      ],
      "name": "transferOwnership",
      "outputs": [],
      "stateMutability": "nonpayable",
      "type": "function"
    },
    {
      "inputs": [
        {
          "internalType": "address",
          "name": "",
          "type": "address"
        }
      ],
      "name": "uniqueTokenStaked",
      "outputs": [
        {
          "internalType": "uint256",
          "name": "",
          "type": "uint256"
        }
      ],
      "stateMutability": "view",
      "type": "function"
    },
    {
      "inputs": [
        {
          "internalType": "address",
          "name": "_token",
          "type": "address"
        }
      ],
      "name": "unstakeTokens",
      "outputs": [],
      "stateMutability": "nonpayable",
      "type": "function"
    }
  ],
  "bytecode": "608060405234801561001057600080fd5b506040516112e43803806112e483398101604081905261002f916100b8565b61003f61003a610064565b610068565b600680546001600160a01b0319166001600160a01b03929092169190911790556100e6565b3390565b600080546001600160a01b038381166001600160a01b0319831681178455604051919092169283917f8be0079c531659141344cd1fd0a4f28419497f9722a3daafe3b4186f6b6457e09190a35050565b6000602082840312156100c9578081fd5b81516001600160a01b03811681146100df578182fd5b9392505050565b6111ef806100f56000396000f3fe608060405234801561001057600080fd5b50600436106101165760003560e01c8063715018a6116100a2578063af3f5e2211610071578063af3f5e221461020b578063dd5b84671461021e578063f1c5d6c21461023e578063f2fde38b1461025f578063fd5e6dd11461027257610116565b8063715018a6146101e0578063877dd39d146101e85780638da5cb5b146101fb578063a1ee8c781461020357610116565b806329161a00116100e957806329161a001461018c5780632d1ad8b81461019f57806355b08abc146101b25780635e5f2e26146101c55780635eb186f8146101d857610116565b80630bea440d1461011b578063171e44ea14610130578063276b11da1461014357806327927b3e1461016c575b600080fd5b61012e610129366004610d8d565b610285565b005b61012e61013e366004610d02565b61040b565b610156610151366004610d23565b61049c565b6040516101639190610fef565b60405180910390f35b61017f61017a366004610d02565b610523565b6040516101639190610e1f565b61015661019a366004610d23565b61053e565b61012e6101ad366004610d02565b61055b565b6101566101c0366004610d02565b610716565b61017f6101d3366004610d75565b610728565b61017f610752565b61012e610761565b61012e6101f6366004610d23565b6107ac565b61017f610819565b61012e610828565b610156610219366004610d02565b610954565b61023161022c366004610d02565b6109fe565b6040516101639190610e70565b61025161024c366004610d02565b610a77565b604051610163929190610ff8565b61012e61026d366004610d02565b610b94565b61017f610280366004610d75565b610c02565b600082116102ae5760405162461bcd60e51b81526004016102a590610f4c565b60405180910390fd5b6102b7816109fe565b6102d35760405162461bcd60e51b81526004016102a590610f1e565b6040516323b872dd60e01b81526001600160a01b038216906323b872dd9061030390339030908790600401610e33565b602060405180830381600087803b15801561031d57600080fd5b505af1158015610331573d6000803e3d6000fd5b505050506040513d601f19601f820116820180604052508101906103559190610d55565b506103603382610c12565b6001600160a01b038116600090815260016020908152604080832033845290915290205461038f908390611006565b6001600160a01b03821660009081526001602081815260408084203385528252808420949094556002905291902054141561040757600480546001810182556000919091527f8a35acfbc15ff81a39ae7d344fd709f28e8600b4aa8c65c6b64bfe7fe36bd19b0180546001600160a01b031916331790555b5050565b610413610c7d565b6001600160a01b0316610424610819565b6001600160a01b03161461044a5760405162461bcd60e51b81526004016102a590610f83565b600580546001810182556000919091527f036b6384b5eca791c62761152d0c79bb0604c104a5fb6f4eb0703f3154bb3db00180546001600160a01b0319166001600160a01b0392909216919091179055565b6001600160a01b0382166000908152600260205260408120546104c15750600061051d565b6000806104cd84610a77565b90925090506104dd81600a611084565b6001600160a01b038086166000908152600160209081526040808320938a168352929052205461050e908490611152565b610518919061101e565b925050505b92915050565b6003602052600090815260409020546001600160a01b031681565b600160209081526000928352604080842090915290825290205481565b6001600160a01b03811660009081526001602090815260408083203384529091529020548061059c5760405162461bcd60e51b81526004016102a590610e7b565b60405163a9059cbb60e01b81526001600160a01b0383169063a9059cbb906105ca9033908590600401610e57565b602060405180830381600087803b1580156105e457600080fd5b505af11580156105f8573d6000803e3d6000fd5b505050506040513d601f19601f8201168201806040525081019061061c9190610d55565b506001600160a01b038216600090815260016020818152604080842033855282528084208490556002909152909120546106569190611171565b336000908152600260205260409020819055610407576000805b6004548110156106d657336001600160a01b0316600482815481106106a557634e487b7160e01b600052603260045260246000fd5b6000918252602090912001546001600160a01b031614156106c4578091505b806106ce81611188565b915050610670565b50600481815481106106f857634e487b7160e01b600052603260045260246000fd5b600091825260209091200180546001600160a01b0319169055505050565b60026020526000908152604090205481565b6005818154811061073857600080fd5b6000918252602090912001546001600160a01b0316905081565b6006546001600160a01b031681565b610769610c7d565b6001600160a01b031661077a610819565b6001600160a01b0316146107a05760405162461bcd60e51b81526004016102a590610f83565b6107aa6000610c81565b565b6107b4610c7d565b6001600160a01b03166107c5610819565b6001600160a01b0316146107eb5760405162461bcd60e51b81526004016102a590610f83565b6001600160a01b03918216600090815260036020526040902080546001600160a01b03191691909216179055565b6000546001600160a01b031690565b610830610c7d565b6001600160a01b0316610841610819565b6001600160a01b0316146108675760405162461bcd60e51b81526004016102a590610f83565b60005b6004548110156109515760006004828154811061089757634e487b7160e01b600052603260045260246000fd5b60009182526020822001546001600160a01b031691506108b682610954565b60065460405163a9059cbb60e01b81529192506001600160a01b03169063a9059cbb906108e99085908590600401610e57565b602060405180830381600087803b15801561090357600080fd5b505af1158015610917573d6000803e3d6000fd5b505050506040513d601f19601f8201168201806040525081019061093b9190610d55565b505050808061094990611188565b91505061086a565b50565b6001600160a01b038116600090815260026020526040812054819061098b5760405162461bcd60e51b81526004016102a590610fb8565b60005b6005548110156109f5576109d784600583815481106109bd57634e487b7160e01b600052603260045260246000fd5b6000918252602090912001546001600160a01b031661049c565b6109e19083611006565b9150806109ed81611188565b91505061098e565b5090505b919050565b6000805b600554811015610a6e57826001600160a01b031660058281548110610a3757634e487b7160e01b600052603260045260246000fd5b6000918252602090912001546001600160a01b03161415610a5c5760019150506109f9565b80610a6681611188565b915050610a02565b50600092915050565b6001600160a01b03808216600090815260036020526040808220548151633fabe5a360e21b815291519293849391169182918491839163feaf968c9160048082019260a092909190829003018186803b158015610ad357600080fd5b505afa158015610ae7573d6000803e3d6000fd5b505050506040513d601f19601f82011682018060405250810190610b0b9190610daf565b5050509150506000826001600160a01b031663313ce5676040518163ffffffff1660e01b815260040160206040518083038186803b158015610b4c57600080fd5b505afa158015610b60573d6000803e3d6000fd5b505050506040513d601f19601f82011682018060405250810190610b849190610dfe565b9195505060ff1692505050915091565b610b9c610c7d565b6001600160a01b0316610bad610819565b6001600160a01b031614610bd35760405162461bcd60e51b81526004016102a590610f83565b6001600160a01b038116610bf95760405162461bcd60e51b81526004016102a590610ed8565b61095181610c81565b6004818154811061073857600080fd5b6001600160a01b03808216600090815260016020908152604080832093861683529290522054610407576001600160a01b038216600090815260026020526040902054610c60906001611006565b6001600160a01b0383166000908152600260205260409020555050565b3390565b600080546001600160a01b038381166001600160a01b0319831681178455604051919092169283917f8be0079c531659141344cd1fd0a4f28419497f9722a3daafe3b4186f6b6457e09190a35050565b80356001600160a01b03811681146109f957600080fd5b805169ffffffffffffffffffff811681146109f957600080fd5b600060208284031215610d13578081fd5b610d1c82610cd1565b9392505050565b60008060408385031215610d35578081fd5b610d3e83610cd1565b9150610d4c60208401610cd1565b90509250929050565b600060208284031215610d66578081fd5b81518015158114610d1c578182fd5b600060208284031215610d86578081fd5b5035919050565b60008060408385031215610d9f578182fd5b82359150610d4c60208401610cd1565b600080600080600060a08688031215610dc6578081fd5b610dcf86610ce8565b9450602086015193506040860151925060608601519150610df260808701610ce8565b90509295509295909350565b600060208284031215610e0f578081fd5b815160ff81168114610d1c578182fd5b6001600160a01b0391909116815260200190565b6001600160a01b039384168152919092166020820152604081019190915260600190565b6001600160a01b03929092168252602082015260400190565b901515815260200190565b6020808252603b908201527f4e6f20746f6b656e73207374616b656420666f7220746869732075736572202d60408201527f205374616b696e672062616c616e63652063616e277420626520300000000000606082015260800190565b60208082526026908201527f4f776e61626c653a206e6577206f776e657220697320746865207a65726f206160408201526564647265737360d01b606082015260800190565b602080825260149082015273151bdad95b881a5cc81b9bdd08185b1b1bddd95960621b604082015260600190565b6020808252601d908201527f416d6f756e74206d7573742062652067726561746572207468616e2030000000604082015260600190565b6020808252818101527f4f776e61626c653a2063616c6c6572206973206e6f7420746865206f776e6572604082015260600190565b6020808252601e908201527f4e6f20746f6b656e73207374616b656420666f72207468697320757365720000604082015260600190565b90815260200190565b918252602082015260400190565b60008219821115611019576110196111a3565b500190565b60008261103957634e487b7160e01b81526012600452602481fd5b500490565b80825b6001808611611050575061107b565b818704821115611062576110626111a3565b8086161561106f57918102915b9490941c938002611041565b94509492505050565b6000610d1c600019848460008261109d57506001610d1c565b816110aa57506000610d1c565b81600181146110c057600281146110ca576110f7565b6001915050610d1c565b60ff8411156110db576110db6111a3565b6001841b9150848211156110f1576110f16111a3565b50610d1c565b5060208310610133831016604e8410600b841016171561112a575081810a83811115611125576111256111a3565b610d1c565b611137848484600161103e565b808604821115611149576111496111a3565b02949350505050565b600081600019048311821515161561116c5761116c6111a3565b500290565b600082821015611183576111836111a3565b500390565b600060001982141561119c5761119c6111a3565b5060010190565b634e487b7160e01b600052601160045260246000fdfea26469706673582212200ffe4e990c8cbcaad250816ac69612b2d0133fba974b7b7f8f6bd7fbec5eb65664736f6c63430008000033",
  "bytecodeSha1": "369ac0e62ab70b48e2ca1264eb7365a8f3d98aa4",
  "compiler": {
    "evm_version": "istanbul",
    "optimizer": {
      "enabled": true,
      "runs": 200
    },
    "version": "0.8.0+commit.c7dfd78e"
  },
  "contractName": "TokenFarm",
  "language": "Solidity",
  "natspec": {
    "kind": "dev",
    "methods": {
      "owner()": {
        "details": "Returns the address of the current owner."
      },
      "renounceOwnership()": {
        "details": "Leaves the contract without owner. It will not be possible to call `onlyOwner` functions anymore. Can only be called by the current owner. NOTE: Renouncing ownership will leave the contract without an owner, thereby removing any functionality that is only available to the owner."
      },
      "transferOwnership(address)": {
        "details": "Transfers ownership of the contract to a new account (`newOwner`). Can only be called by the current owner."
      }
    },
    "version": 1
  },
  "opcodes": "PUSH1 0x80 PUSH1 0x40 MSTORE CALLVALUE DUP1 ISZERO PUSH2 0x10 JUMPI PUSH1 0x0 DUP1 REVERT JUMPDEST POP PUSH1 0x4 CALLDATASIZE LT PUSH2 0x116 JUMPI PUSH1 0x0 CALLDATALOAD PUSH1 0xE0 SHR DUP1 PUSH4 0x715018A6 GT PUSH2 0xA2 JUMPI DUP1 PUSH4 0xAF3F5E22 GT PUSH2 0x71 JUMPI DUP1 PUSH4 0xAF3F5E22 EQ PUSH2 0x20B JUMPI DUP1 PUSH4 0xDD5B8467 EQ PUSH2 0x21E JUMPI DUP1 PUSH4 0xF1C5D6C2 EQ PUSH2 0x23E JUMPI DUP1 PUSH4 0xF2FDE38B EQ PUSH2 0x25F JUMPI DUP1 PUSH4 0xFD5E6DD1 EQ PUSH2 0x272 JUMPI PUSH2 0x116 JUMP JUMPDEST DUP1 PUSH4 0x715018A6 EQ PUSH2 0x1E0 JUMPI DUP1 PUSH4 0x877DD39D EQ PUSH2 0x1E8 JUMPI DUP1 PUSH4 0x8DA5CB5B EQ PUSH2 0x1FB JUMPI DUP1 PUSH4 0xA1EE8C78 EQ PUSH2 0x203 JUMPI PUSH2 0x116 JUMP JUMPDEST DUP1 PUSH4 0x29161A00 GT PUSH2 0xE9 JUMPI DUP1 PUSH4 0x29161A00 EQ PUSH2 0x18C JUMPI DUP1 PUSH4 0x2D1AD8B8 EQ PUSH2 0x19F JUMPI DUP1 PUSH4 0x55B08ABC EQ PUSH2 0x1B2 JUMPI DUP1 PUSH4 0x5E5F2E26 EQ PUSH2 0x1C5 JUMPI DUP1 PUSH4 0x5EB186F8 EQ PUSH2 0x1D8 JUMPI PUSH2 0x116 JUMP JUMPDEST DUP1 PUSH4 0xBEA440D EQ PUSH2 0x11B JUMPI DUP1 PUSH4 0x171E44EA EQ PUSH2 0x130 JUMPI DUP1 PUSH4 0x276B11DA EQ PUSH2 0x143 JUMPI DUP1 PUSH4 0x27927B3E EQ PUSH2 0x16C JUMPI JUMPDEST PUSH1 0x0 DUP1 REVERT JUMPDEST PUSH2 0x12E PUSH2 0x129 CALLDATASIZE PUSH1 0x4 PUSH2 0xD8D JUMP JUMPDEST PUSH2 0x285 JUMP JUMPDEST STOP JUMPDEST PUSH2 0x12E PUSH2 0x13E CALLDATASIZE PUSH1 0x4 PUSH2 0xD02 JUMP JUMPDEST PUSH2 0x40B JUMP JUMPDEST PUSH2 0x156 PUSH2 0x151 CALLDATASIZE PUSH1 0x4 PUSH2 0xD23 JUMP JUMPDEST PUSH2 0x49C JUMP JUMPDEST PUSH1 0x40 MLOAD PUSH2 0x163 SWAP2 SWAP1 PUSH2 0xFEF JUMP JUMPDEST PUSH1 0x40 MLOAD DUP1 SWAP2 SUB SWAP1 RETURN JUMPDEST PUSH2 0x17F PUSH2 0x17A CALLDATASIZE PUSH1 0x4 PUSH2 0xD02 JUMP JUMPDEST PUSH2 0x523 JUMP JUMPDEST PUSH1 0x40 MLOAD PUSH2 0x163 SWAP2 SWAP1 PUSH2 0xE1F JUMP JUMPDEST PUSH2 0x156 PUSH2 0x19A CALLDATASIZE PUSH1 0x4 PUSH2 0xD23 JUMP JUMPDEST PUSH2 0x53E JUMP JUMPDEST PUSH2 0x12E PUSH2 0x1AD CALLDATASIZE PUSH1 0x4 PUSH2 0xD02 JUMP JUMPDEST PUSH2 0x55B JUMP JUMPDEST PUSH2 0x156 PUSH2 0x1C0 CALLDATASIZE PUSH1 0x4 PUSH2 0xD02 JUMP JUMPDEST PUSH2 0x716 JUMP JUMPDEST PUSH2 0x17F PUSH2 0x1D3 CALLDATASIZE PUSH1 0x4 PUSH2 0xD75 JUMP JUMPDEST PUSH2 0x728 JUMP JUMPDEST PUSH2 0x17F PUSH2 0x752 JUMP JUMPDEST PUSH2 0x12E PUSH2 0x761 JUMP JUMPDEST PUSH2 0x12E PUSH2 0x1F6 CALLDATASIZE PUSH1 0x4 PUSH2 0xD23 JUMP JUMPDEST PUSH2 0x7AC JUMP JUMPDEST PUSH2 0x17F PUSH2 0x819 JUMP JUMPDEST PUSH2 0x12E PUSH2 0x828 JUMP JUMPDEST PUSH2 0x156 PUSH2 0x219 CALLDATASIZE PUSH1 0x4 PUSH2 0xD02 JUMP JUMPDEST PUSH2 0x954 JUMP JUMPDEST PUSH2 0x231 PUSH2 0x22C CALLDATASIZE PUSH1 0x4 PUSH2 0xD02 JUMP JUMPDEST PUSH2 0x9FE JUMP JUMPDEST PUSH1 0x40 MLOAD PUSH2 0x163 SWAP2 SWAP1 PUSH2 0xE70 JUMP JUMPDEST PUSH2 0x251 PUSH2 0x24C CALLDATASIZE PUSH1 0x4 PUSH2 0xD02 JUMP JUMPDEST PUSH2 0xA77 JUMP JUMPDEST PUSH1 0x40 MLOAD PUSH2 0x163 SWAP3 SWAP2 SWAP1 PUSH2 0xFF8 JUMP JUMPDEST PUSH2 0x12E PUSH2 0x26D CALLDATASIZE PUSH1 0x4 PUSH2 0xD02 JUMP JUMPDEST PUSH2 0xB94 JUMP JUMPDEST PUSH2 0x17F PUSH2 0x280 CALLDATASIZE PUSH1 0x4 PUSH2 0xD75 JUMP JUMPDEST PUSH2 0xC02 JUMP JUMPDEST PUSH1 0x0 DUP3 GT PUSH2 0x2AE JUMPI PUSH1 0x40 MLOAD PUSH3 0x461BCD PUSH1 0xE5 SHL DUP2 MSTORE PUSH1 0x4 ADD PUSH2 0x2A5 SWAP1 PUSH2 0xF4C JUMP JUMPDEST PUSH1 0x40 MLOAD DUP1 SWAP2 SUB SWAP1 REVERT JUMPDEST PUSH2 0x2B7 DUP2 PUSH2 0x9FE JUMP JUMPDEST PUSH2 0x2D3 JUMPI PUSH1 0x40 MLOAD PUSH3 0x461BCD PUSH1 0xE5 SHL DUP2 MSTORE PUSH1 0x4 ADD PUSH2 0x2A5 SWAP1 PUSH2 0xF1E JUMP JUMPDEST PUSH1 0x40 MLOAD PUSH4 0x23B872DD PUSH1 0xE0 SHL DUP2 MSTORE PUSH1 0x1 PUSH1 0x1 PUSH1 0xA0 SHL SUB DUP3 AND SWAP1 PUSH4 0x23B872DD SWAP1 PUSH2 0x303 SWAP1 CALLER SWAP1 ADDRESS SWAP1 DUP8 SWAP1 PUSH1 0x4 ADD PUSH2 0xE33 JUMP JUMPDEST PUSH1 0x20 PUSH1 0x40 MLOAD DUP1 DUP4 SUB DUP2 PUSH1 0x0 DUP8 DUP1 EXTCODESIZE ISZERO DUP1 ISZERO PUSH2 0x31D JUMPI PUSH1 0x0 DUP1 REVERT JUMPDEST POP GAS CALL ISZERO DUP1 ISZERO PUSH2 0x331 JUMPI RETURNDATASIZE PUSH1 0x0 DUP1 RETURNDATACOPY RETURNDATASIZE PUSH1 0x0 REVERT JUMPDEST POP POP POP POP PUSH1 0x40 MLOAD RETURNDATASIZE PUSH1 0x1F NOT PUSH1 0x1F DUP3 ADD AND DUP3 ADD DUP1 PUSH1 0x40 MSTORE POP DUP2 ADD SWAP1 PUSH2 0x355 SWAP2 SWAP1 PUSH2 0xD55 JUMP JUMPDEST POP PUSH2 0x360 CALLER DUP3 PUSH2 0xC12 JUMP JUMPDEST PUSH1 0x1 PUSH1 0x1 PUSH1 0xA0 SHL SUB DUP2 AND PUSH1 0x0 SWAP1 DUP2 MSTORE PUSH1 0x1 PUSH1 0x20 SWAP1 DUP2 MSTORE PUSH1 0x40 DUP1 DUP4 KECCAK256 CALLER DUP5 MSTORE SWAP1 SWAP2 MSTORE SWAP1 KECCAK256 SLOAD PUSH2 0x38F SWAP1 DUP4 SWAP1 PUSH2 0x1006 JUMP JUMPDEST PUSH1 0x1 PUSH1 0x1 PUSH1 0xA0 SHL SUB DUP3 AND PUSH1 0x0 SWAP1 DUP2 MSTORE PUSH1 0x1 PUSH1 0x20 DUP2 DUP2 MSTORE PUSH1 0x40 DUP1 DUP5 KECCAK256 CALLER DUP6 MSTORE DUP3 MSTORE DUP1 DUP5 KECCAK256 SWAP5 SWAP1 SWAP5 SSTORE PUSH1 0x2 SWAP1 MSTORE SWAP2 SWAP1 KECCAK256 SLOAD EQ ISZERO PUSH2 0x407 JUMPI PUSH1 0x4 DUP1 SLOAD PUSH1 0x1 DUP2 ADD DUP3 SSTORE PUSH1 0x0 SWAP2 SWAP1 SWAP2 MSTORE PUSH32 0x8A35ACFBC15FF81A39AE7D344FD709F28E8600B4AA8C65C6B64BFE7FE36BD19B ADD DUP1 SLOAD PUSH1 0x1 PUSH1 0x1 PUSH1 0xA0 SHL SUB NOT AND CALLER OR SWAP1 SSTORE JUMPDEST POP POP JUMP JUMPDEST PUSH2 0x413 PUSH2 0xC7D JUMP JUMPDEST PUSH1 0x1 PUSH1 0x1 PUSH1 0xA0 SHL SUB AND PUSH2 0x424 PUSH2 0x819 JUMP JUMPDEST PUSH1 0x1 PUSH1 0x1 PUSH1 0xA0 SHL SUB AND EQ PUSH2 0x44A JUMPI PUSH1 0x40 MLOAD PUSH3 0x461BCD PUSH1 0xE5 SHL DUP2 MSTORE PUSH1 0x4 ADD PUSH2 0x2A5 SWAP1 PUSH2 0xF83 JUMP JUMPDEST PUSH1 0x5 DUP1 SLOAD PUSH1 0x1 DUP2 ADD DUP3 SSTORE PUSH1 0x0 SWAP2 SWAP1 SWAP2 MSTORE PUSH32 0x36B6384B5ECA791C62761152D0C79BB0604C104A5FB6F4EB0703F3154BB3DB0 ADD DUP1 SLOAD PUSH1 0x1 PUSH1 0x1 PUSH1 0xA0 SHL SUB NOT AND PUSH1 0x1 PUSH1 0x1 PUSH1 0xA0 SHL SUB SWAP3 SWAP1 SWAP3 AND SWAP2 SWAP1 SWAP2 OR SWAP1 SSTORE JUMP JUMPDEST PUSH1 0x1 PUSH1 0x1 PUSH1 0xA0 SHL SUB DUP3 AND PUSH1 0x0 SWAP1 DUP2 MSTORE PUSH1 0x2 PUSH1 0x20 MSTORE PUSH1 0x40 DUP2 KECCAK256 SLOAD PUSH2 0x4C1 JUMPI POP PUSH1 0x0 PUSH2 0x51D JUMP JUMPDEST PUSH1 0x0 DUP1 PUSH2 0x4CD DUP5 PUSH2 0xA77 JUMP JUMPDEST SWAP1 SWAP3 POP SWAP1 POP PUSH2 0x4DD DUP2 PUSH1 0xA PUSH2 0x1084 JUMP JUMPDEST PUSH1 0x1 PUSH1 0x1 PUSH1 0xA0 SHL SUB DUP1 DUP7 AND PUSH1 0x0 SWAP1 DUP2 MSTORE PUSH1 0x1 PUSH1 0x20 SWAP1 DUP2 MSTORE PUSH1 0x40 DUP1 DUP4 KECCAK256 SWAP4 DUP11 AND DUP4 MSTORE SWAP3 SWAP1 MSTORE KECCAK256 SLOAD PUSH2 0x50E SWAP1 DUP5 SWAP1 PUSH2 0x1152 JUMP JUMPDEST PUSH2 0x518 SWAP2 SWAP1 PUSH2 0x101E JUMP JUMPDEST SWAP3 POP POP POP JUMPDEST SWAP3 SWAP2 POP POP JUMP JUMPDEST PUSH1 0x3 PUSH1 0x20 MSTORE PUSH1 0x0 SWAP1 DUP2 MSTORE PUSH1 0x40 SWAP1 KECCAK256 SLOAD PUSH1 0x1 PUSH1 0x1 PUSH1 0xA0 SHL SUB AND DUP2 JUMP JUMPDEST PUSH1 0x1 PUSH1 0x20 SWAP1 DUP2 MSTORE PUSH1 0x0 SWAP3 DUP4 MSTORE PUSH1 0x40 DUP1 DUP5 KECCAK256 SWAP1 SWAP2 MSTORE SWAP1 DUP3 MSTORE SWAP1 KECCAK256 SLOAD DUP2 JUMP JUMPDEST PUSH1 0x1 PUSH1 0x1 PUSH1 0xA0 SHL SUB DUP2 AND PUSH1 0x0 SWAP1 DUP2 MSTORE PUSH1 0x1 PUSH1 0x20 SWAP1 DUP2 MSTORE PUSH1 0x40 DUP1 DUP4 KECCAK256 CALLER DUP5 MSTORE SWAP1 SWAP2 MSTORE SWAP1 KECCAK256 SLOAD DUP1 PUSH2 0x59C JUMPI PUSH1 0x40 MLOAD PUSH3 0x461BCD PUSH1 0xE5 SHL DUP2 MSTORE PUSH1 0x4 ADD PUSH2 0x2A5 SWAP1 PUSH2 0xE7B JUMP JUMPDEST PUSH1 0x40 MLOAD PUSH4 0xA9059CBB PUSH1 0xE0 SHL DUP2 MSTORE PUSH1 0x1 PUSH1 0x1 PUSH1 0xA0 SHL SUB DUP4 AND SWAP1 PUSH4 0xA9059CBB SWAP1 PUSH2 0x5CA SWAP1 CALLER SWAP1 DUP6 SWAP1 PUSH1 0x4 ADD PUSH2 0xE57 JUMP JUMPDEST PUSH1 0x20 PUSH1 0x40 MLOAD DUP1 DUP4 SUB DUP2 PUSH1 0x0 DUP8 DUP1 EXTCODESIZE ISZERO DUP1 ISZERO PUSH2 0x5E4 JUMPI PUSH1 0x0 DUP1 REVERT JUMPDEST POP GAS CALL ISZERO DUP1 ISZERO PUSH2 0x5F8 JUMPI RETURNDATASIZE PUSH1 0x0 DUP1 RETURNDATACOPY RETURNDATASIZE PUSH1 0x0 REVERT JUMPDEST POP POP POP POP PUSH1 0x40 MLOAD RETURNDATASIZE PUSH1 0x1F NOT PUSH1 0x1F DUP3 ADD AND DUP3 ADD DUP1 PUSH1 0x40 MSTORE POP DUP2 ADD SWAP1 PUSH2 0x61C SWAP2 SWAP1 PUSH2 0xD55 JUMP JUMPDEST POP PUSH1 0x1 PUSH1 0x1 PUSH1 0xA0 SHL SUB DUP3 AND PUSH1 0x0 SWAP1 DUP2 MSTORE PUSH1 0x1 PUSH1 0x20 DUP2 DUP2 MSTORE PUSH1 0x40 DUP1 DUP5 KECCAK256 CALLER DUP6 MSTORE DUP3 MSTORE DUP1 DUP5 KECCAK256 DUP5 SWAP1 SSTORE PUSH1 0x2 SWAP1 SWAP2 MSTORE SWAP1 SWAP2 KECCAK256 SLOAD PUSH2 0x656 SWAP2 SWAP1 PUSH2 0x1171 JUMP JUMPDEST CALLER PUSH1 0x0 SWAP1 DUP2 MSTORE PUSH1 0x2 PUSH1 0x20 MSTORE PUSH1 0x40 SWAP1 KECCAK256 DUP2 SWAP1 SSTORE PUSH2 0x407 JUMPI PUSH1 0x0 DUP1 JUMPDEST PUSH1 0x4 SLOAD DUP2 LT ISZERO PUSH2 0x6D6 JUMPI CALLER PUSH1 0x1 PUSH1 0x1 PUSH1 0xA0 SHL SUB AND PUSH1 0x4 DUP3 DUP2 SLOAD DUP2 LT PUSH2 0x6A5 JUMPI PUSH4 0x4E487B71 PUSH1 0xE0 SHL PUSH1 0x0 MSTORE PUSH1 0x32 PUSH1 0x4 MSTORE PUSH1 0x24 PUSH1 0x0 REVERT JUMPDEST PUSH1 0x0 SWAP2 DUP3 MSTORE PUSH1 0x20 SWAP1 SWAP2 KECCAK256 ADD SLOAD PUSH1 0x1 PUSH1 0x1 PUSH1 0xA0 SHL SUB AND EQ ISZERO PUSH2 0x6C4 JUMPI DUP1 SWAP2 POP JUMPDEST DUP1 PUSH2 0x6CE DUP2 PUSH2 0x1188 JUMP JUMPDEST SWAP2 POP POP PUSH2 0x670 JUMP JUMPDEST POP PUSH1 0x4 DUP2 DUP2 SLOAD DUP2 LT PUSH2 0x6F8 JUMPI PUSH4 0x4E487B71 PUSH1 0xE0 SHL PUSH1 0x0 MSTORE PUSH1 0x32 PUSH1 0x4 MSTORE PUSH1 0x24 PUSH1 0x0 REVERT JUMPDEST PUSH1 0x0 SWAP2 DUP3 MSTORE PUSH1 0x20 SWAP1 SWAP2 KECCAK256 ADD DUP1 SLOAD PUSH1 0x1 PUSH1 0x1 PUSH1 0xA0 SHL SUB NOT AND SWAP1 SSTORE POP POP POP JUMP JUMPDEST PUSH1 0x2 PUSH1 0x20 MSTORE PUSH1 0x0 SWAP1 DUP2 MSTORE PUSH1 0x40 SWAP1 KECCAK256 SLOAD DUP2 JUMP JUMPDEST PUSH1 0x5 DUP2 DUP2 SLOAD DUP2 LT PUSH2 0x738 JUMPI PUSH1 0x0 DUP1 REVERT JUMPDEST PUSH1 0x0 SWAP2 DUP3 MSTORE PUSH1 0x20 SWAP1 SWAP2 KECCAK256 ADD SLOAD PUSH1 0x1 PUSH1 0x1 PUSH1 0xA0 SHL SUB AND SWAP1 POP DUP2 JUMP JUMPDEST PUSH1 0x6 SLOAD PUSH1 0x1 PUSH1 0x1 PUSH1 0xA0 SHL SUB AND DUP2 JUMP JUMPDEST PUSH2 0x769 PUSH2 0xC7D JUMP JUMPDEST PUSH1 0x1 PUSH1 0x1 PUSH1 0xA0 SHL SUB AND PUSH2 0x77A PUSH2 0x819 JUMP JUMPDEST PUSH1 0x1 PUSH1 0x1 PUSH1 0xA0 SHL SUB AND EQ PUSH2 0x7A0 JUMPI PUSH1 0x40 MLOAD PUSH3 0x461BCD PUSH1 0xE5 SHL DUP2 MSTORE PUSH1 0x4 ADD PUSH2 0x2A5 SWAP1 PUSH2 0xF83 JUMP JUMPDEST PUSH2 0x7AA PUSH1 0x0 PUSH2 0xC81 JUMP JUMPDEST JUMP JUMPDEST PUSH2 0x7B4 PUSH2 0xC7D JUMP JUMPDEST PUSH1 0x1 PUSH1 0x1 PUSH1 0xA0 SHL SUB AND PUSH2 0x7C5 PUSH2 0x819 JUMP JUMPDEST PUSH1 0x1 PUSH1 0x1 PUSH1 0xA0 SHL SUB AND EQ PUSH2 0x7EB JUMPI PUSH1 0x40 MLOAD PUSH3 0x461BCD PUSH1 0xE5 SHL DUP2 MSTORE PUSH1 0x4 ADD PUSH2 0x2A5 SWAP1 PUSH2 0xF83 JUMP JUMPDEST PUSH1 0x1 PUSH1 0x1 PUSH1 0xA0 SHL SUB SWAP2 DUP3 AND PUSH1 0x0 SWAP1 DUP2 MSTORE PUSH1 0x3 PUSH1 0x20 MSTORE PUSH1 0x40 SWAP1 KECCAK256 DUP1 SLOAD PUSH1 0x1 PUSH1 0x1 PUSH1 0xA0 SHL SUB NOT AND SWAP2 SWAP1 SWAP3 AND OR SWAP1 SSTORE JUMP JUMPDEST PUSH1 0x0 SLOAD PUSH1 0x1 PUSH1 0x1 PUSH1 0xA0 SHL SUB AND SWAP1 JUMP JUMPDEST PUSH2 0x830 PUSH2 0xC7D JUMP JUMPDEST PUSH1 0x1 PUSH1 0x1 PUSH1 0xA0 SHL SUB AND PUSH2 0x841 PUSH2 0x819 JUMP JUMPDEST PUSH1 0x1 PUSH1 0x1 PUSH1 0xA0 SHL SUB AND EQ PUSH2 0x867 JUMPI PUSH1 0x40 MLOAD PUSH3 0x461BCD PUSH1 0xE5 SHL DUP2 MSTORE PUSH1 0x4 ADD PUSH2 0x2A5 SWAP1 PUSH2 0xF83 JUMP JUMPDEST PUSH1 0x0 JUMPDEST PUSH1 0x4 SLOAD DUP2 LT ISZERO PUSH2 0x951 JUMPI PUSH1 0x0 PUSH1 0x4 DUP3 DUP2 SLOAD DUP2 LT PUSH2 0x897 JUMPI PUSH4 0x4E487B71 PUSH1 0xE0 SHL PUSH1 0x0 MSTORE PUSH1 0x32 PUSH1 0x4 MSTORE PUSH1 0x24 PUSH1 0x0 REVERT JUMPDEST PUSH1 0x0 SWAP2 DUP3 MSTORE PUSH1 0x20 DUP3 KECCAK256 ADD SLOAD PUSH1 0x1 PUSH1 0x1 PUSH1 0xA0 SHL SUB AND SWAP2 POP PUSH2 0x8B6 DUP3 PUSH2 0x954 JUMP JUMPDEST PUSH1 0x6 SLOAD PUSH1 0x40 MLOAD PUSH4 0xA9059CBB PUSH1 0xE0 SHL DUP2 MSTORE SWAP2 SWAP3 POP PUSH1 0x1 PUSH1 0x1 PUSH1 0xA0 SHL SUB AND SWAP1 PUSH4 0xA9059CBB SWAP1 PUSH2 0x8E9 SWAP1 DUP6 SWAP1 DUP6 SWAP1 PUSH1 0x4 ADD PUSH2 0xE57 JUMP JUMPDEST PUSH1 0x20 PUSH1 0x40 MLOAD DUP1 DUP4 SUB DUP2 PUSH1 0x0 DUP8 DUP1 EXTCODESIZE ISZERO DUP1 ISZERO PUSH2 0x903 JUMPI PUSH1 0x0 DUP1 REVERT JUMPDEST POP GAS CALL ISZERO DUP1 ISZERO PUSH2 0x917 JUMPI RETURNDATASIZE PUSH1 0x0 DUP1 RETURNDATACOPY RETURNDATASIZE PUSH1 0x0 REVERT JUMPDEST POP POP POP POP PUSH1 0x40 MLOAD RETURNDATASIZE PUSH1 0x1F NOT PUSH1 0x1F DUP3 ADD AND DUP3 ADD DUP1 PUSH1 0x40 MSTORE POP DUP2 ADD SWAP1 PUSH2 0x93B SWAP2 SWAP1 PUSH2 0xD55 JUMP JUMPDEST POP POP POP DUP1 DUP1 PUSH2 0x949 SWAP1 PUSH2 0x1188 JUMP JUMPDEST SWAP2 POP POP PUSH2 0x86A JUMP JUMPDEST POP JUMP JUMPDEST PUSH1 0x1 PUSH1 0x1 PUSH1 0xA0 SHL SUB DUP2 AND PUSH1 0x0 SWAP1 DUP2 MSTORE PUSH1 0x2 PUSH1 0x20 MSTORE PUSH1 0x40 DUP2 KECCAK256 SLOAD DUP2 SWAP1 PUSH2 0x98B JUMPI PUSH1 0x40 MLOAD PUSH3 0x461BCD PUSH1 0xE5 SHL DUP2 MSTORE PUSH1 0x4 ADD PUSH2 0x2A5 SWAP1 PUSH2 0xFB8 JUMP JUMPDEST PUSH1 0x0 JUMPDEST PUSH1 0x5 SLOAD DUP2 LT ISZERO PUSH2 0x9F5 JUMPI PUSH2 0x9D7 DUP5 PUSH1 0x5 DUP4 DUP2 SLOAD DUP2 LT PUSH2 0x9BD JUMPI PUSH4 0x4E487B71 PUSH1 0xE0 SHL PUSH1 0x0 MSTORE PUSH1 0x32 PUSH1 0x4 MSTORE PUSH1 0x24 PUSH1 0x0 REVERT JUMPDEST PUSH1 0x0 SWAP2 DUP3 MSTORE PUSH1 0x20 SWAP1 SWAP2 KECCAK256 ADD SLOAD PUSH1 0x1 PUSH1 0x1 PUSH1 0xA0 SHL SUB AND PUSH2 0x49C JUMP JUMPDEST PUSH2 0x9E1 SWAP1 DUP4 PUSH2 0x1006 JUMP JUMPDEST SWAP2 POP DUP1 PUSH2 0x9ED DUP2 PUSH2 0x1188 JUMP JUMPDEST SWAP2 POP POP PUSH2 0x98E JUMP JUMPDEST POP SWAP1 POP JUMPDEST SWAP2 SWAP1 POP JUMP JUMPDEST PUSH1 0x0 DUP1 JUMPDEST PUSH1 0x5 SLOAD DUP2 LT ISZERO PUSH2 0xA6E JUMPI DUP3 PUSH1 0x1 PUSH1 0x1 PUSH1 0xA0 SHL SUB AND PUSH1 0x5 DUP3 DUP2 SLOAD DUP2 LT PUSH2 0xA37 JUMPI PUSH4 0x4E487B71 PUSH1 0xE0 SHL PUSH1 0x0 MSTORE PUSH1 0x32 PUSH1 0x4 MSTORE PUSH1 0x24 PUSH1 0x0 REVERT JUMPDEST PUSH1 0x0 SWAP2 DUP3 MSTORE PUSH1 0x20 SWAP1 SWAP2 KECCAK256 ADD SLOAD PUSH1 0x1 PUSH1 0x1 PUSH1 0xA0 SHL SUB AND EQ ISZERO PUSH2 0xA5C JUMPI PUSH1 0x1 SWAP2 POP POP PUSH2 0x9F9 JUMP JUMPDEST DUP1 PUSH2 0xA66 DUP2 PUSH2 0x1188 JUMP JUMPDEST SWAP2 POP POP PUSH2 0xA02 JUMP JUMPDEST POP PUSH1 0x0 SWAP3 SWAP2 POP POP JUMP JUMPDEST PUSH1 0x1 PUSH1 0x1 PUSH1 0xA0 SHL SUB DUP1 DUP3 AND PUSH1 0x0 SWAP1 DUP2 MSTORE PUSH1 0x3 PUSH1 0x20 MSTORE PUSH1 0x40 DUP1 DUP3 KECCAK256 SLOAD DUP2 MLOAD PUSH4 0x3FABE5A3 PUSH1 0xE2 SHL DUP2 MSTORE SWAP2 MLOAD SWAP3 SWAP4 DUP5 SWAP4 SWAP2 AND SWAP2 DUP3 SWAP2 DUP5 SWAP2 DUP4 SWAP2 PUSH4 0xFEAF968C SWAP2 PUSH1 0x4 DUP1 DUP3 ADD SWAP3 PUSH1 0xA0 SWAP3 SWAP1 SWAP2 SWAP1 DUP3 SWAP1 SUB ADD DUP2 DUP7 DUP1 EXTCODESIZE ISZERO DUP1 ISZERO PUSH2 0xAD3 JUMPI PUSH1 0x0 DUP1 REVERT JUMPDEST POP GAS STATICCALL ISZERO DUP1 ISZERO PUSH2 0xAE7 JUMPI RETURNDATASIZE PUSH1 0x0 DUP1 RETURNDATACOPY RETURNDATASIZE PUSH1 0x0 REVERT JUMPDEST POP POP POP POP PUSH1 0x40 MLOAD RETURNDATASIZE PUSH1 0x1F NOT PUSH1 0x1F DUP3 ADD AND DUP3 ADD DUP1 PUSH1 0x40 MSTORE POP DUP2 ADD SWAP1 PUSH2 0xB0B SWAP2 SWAP1 PUSH2 0xDAF JUMP JUMPDEST POP POP POP SWAP2 POP POP PUSH1 0x0 DUP3 PUSH1 0x1 PUSH1 0x1 PUSH1 0xA0 SHL SUB AND PUSH4 0x313CE567 PUSH1 0x40 MLOAD DUP2 PUSH4 0xFFFFFFFF AND PUSH1 0xE0 SHL DUP2 MSTORE PUSH1 0x4 ADD PUSH1 0x20 PUSH1 0x40 MLOAD DUP1 DUP4 SUB DUP2 DUP7 DUP1 EXTCODESIZE ISZERO DUP1 ISZERO PUSH2 0xB4C JUMPI PUSH1 0x0 DUP1 REVERT JUMPDEST POP GAS STATICCALL ISZERO DUP1 ISZERO PUSH2 0xB60 JUMPI RETURNDATASIZE PUSH1 0x0 DUP1 RETURNDATACOPY RETURNDATASIZE PUSH1 0x0 REVERT JUMPDEST POP POP POP POP PUSH1 0x40 MLOAD RETURNDATASIZE PUSH1 0x1F NOT PUSH1 0x1F DUP3 ADD AND DUP3 ADD DUP1 PUSH1 0x40 MSTORE POP DUP2 ADD SWAP1 PUSH2 0xB84 SWAP2 SWAP1 PUSH2 0xDFE JUMP JUMPDEST SWAP2 SWAP6 POP POP PUSH1 0xFF AND SWAP3 POP POP POP SWAP2 POP SWAP2 JUMP JUMPDEST PUSH2 0xB9C PUSH2 0xC7D JUMP JUMPDEST PUSH1 0x1 PUSH1 0x1 PUSH1 0xA0 SHL SUB AND PUSH2 0xBAD PUSH2 0x819 JUMP JUMPDEST PUSH1 0x1 PUSH1 0x1 PUSH1 0xA0 SHL SUB AND EQ PUSH2 0xBD3 JUMPI PUSH1 0x40 MLOAD PUSH3 0x461BCD PUSH1 0xE5 SHL DUP2 MSTORE PUSH1 0x4 ADD PUSH2 0x2A5 SWAP1 PUSH2 0xF83 JUMP JUMPDEST PUSH1 0x1 PUSH1 0x1 PUSH1 0xA0 SHL SUB DUP2 AND PUSH2 0xBF9 JUMPI PUSH1 0x40 MLOAD PUSH3 0x461BCD PUSH1 0xE5 SHL DUP2 MSTORE PUSH1 0x4 ADD PUSH2 0x2A5 SWAP1 PUSH2 0xED8 JUMP JUMPDEST PUSH2 0x951 DUP2 PUSH2 0xC81 JUMP JUMPDEST PUSH1 0x4 DUP2 DUP2 SLOAD DUP2 LT PUSH2 0x738 JUMPI PUSH1 0x0 DUP1 REVERT JUMPDEST PUSH1 0x1 PUSH1 0x1 PUSH1 0xA0 SHL SUB DUP1 DUP3 AND PUSH1 0x0 SWAP1 DUP2 MSTORE PUSH1 0x1 PUSH1 0x20 SWAP1 DUP2 MSTORE PUSH1 0x40 DUP1 DUP4 KECCAK256 SWAP4 DUP7 AND DUP4 MSTORE SWAP3 SWAP1 MSTORE KECCAK256 SLOAD PUSH2 0x407 JUMPI PUSH1 0x1 PUSH1 0x1 PUSH1 0xA0 SHL SUB DUP3 AND PUSH1 0x0 SWAP1 DUP2 MSTORE PUSH1 0x2 PUSH1 0x20 MSTORE PUSH1 0x40 SWAP1 KECCAK256 SLOAD PUSH2 0xC60 SWAP1 PUSH1 0x1 PUSH2 0x1006 JUMP JUMPDEST PUSH1 0x1 PUSH1 0x1 PUSH1 0xA0 SHL SUB DUP4 AND PUSH1 0x0 SWAP1 DUP2 MSTORE PUSH1 0x2 PUSH1 0x20 MSTORE PUSH1 0x40 SWAP1 KECCAK256 SSTORE POP POP JUMP JUMPDEST CALLER SWAP1 JUMP JUMPDEST PUSH1 0x0 DUP1 SLOAD PUSH1 0x1 PUSH1 0x1 PUSH1 0xA0 SHL SUB DUP4 DUP2 AND PUSH1 0x1 PUSH1 0x1 PUSH1 0xA0 SHL SUB NOT DUP4 AND DUP2 OR DUP5 SSTORE PUSH1 0x40 MLOAD SWAP2 SWAP1 SWAP3 AND SWAP3 DUP4 SWAP2 PUSH32 0x8BE0079C531659141344CD1FD0A4F28419497F9722A3DAAFE3B4186F6B6457E0 SWAP2 SWAP1 LOG3 POP POP JUMP JUMPDEST DUP1 CALLDATALOAD PUSH1 0x1 PUSH1 0x1 PUSH1 0xA0 SHL SUB DUP2 AND DUP2 EQ PUSH2 0x9F9 JUMPI PUSH1 0x0 DUP1 REVERT JUMPDEST DUP1 MLOAD PUSH10 0xFFFFFFFFFFFFFFFFFFFF DUP2 AND DUP2 EQ PUSH2 0x9F9 JUMPI PUSH1 0x0 DUP1 REVERT JUMPDEST PUSH1 0x0 PUSH1 0x20 DUP3 DUP5 SUB SLT ISZERO PUSH2 0xD13 JUMPI DUP1 DUP2 REVERT JUMPDEST PUSH2 0xD1C DUP3 PUSH2 0xCD1 JUMP JUMPDEST SWAP4 SWAP3 POP POP POP JUMP JUMPDEST PUSH1 0x0 DUP1 PUSH1 0x40 DUP4 DUP6 SUB SLT ISZERO PUSH2 0xD35 JUMPI DUP1 DUP2 REVERT JUMPDEST PUSH2 0xD3E DUP4 PUSH2 0xCD1 JUMP JUMPDEST SWAP2 POP PUSH2 0xD4C PUSH1 0x20 DUP5 ADD PUSH2 0xCD1 JUMP JUMPDEST SWAP1 POP SWAP3 POP SWAP3 SWAP1 POP JUMP JUMPDEST PUSH1 0x0 PUSH1 0x20 DUP3 DUP5 SUB SLT ISZERO PUSH2 0xD66 JUMPI DUP1 DUP2 REVERT JUMPDEST DUP2 MLOAD DUP1 ISZERO ISZERO DUP2 EQ PUSH2 0xD1C JUMPI DUP2 DUP3 REVERT JUMPDEST PUSH1 0x0 PUSH1 0x20 DUP3 DUP5 SUB SLT ISZERO PUSH2 0xD86 JUMPI DUP1 DUP2 REVERT JUMPDEST POP CALLDATALOAD SWAP2 SWAP1 POP JUMP JUMPDEST PUSH1 0x0 DUP1 PUSH1 0x40 DUP4 DUP6 SUB SLT ISZERO PUSH2 0xD9F JUMPI DUP2 DUP3 REVERT JUMPDEST DUP3 CALLDATALOAD SWAP2 POP PUSH2 0xD4C PUSH1 0x20 DUP5 ADD PUSH2 0xCD1 JUMP JUMPDEST PUSH1 0x0 DUP1 PUSH1 0x0 DUP1 PUSH1 0x0 PUSH1 0xA0 DUP7 DUP9 SUB SLT ISZERO PUSH2 0xDC6 JUMPI DUP1 DUP2 REVERT JUMPDEST PUSH2 0xDCF DUP7 PUSH2 0xCE8 JUMP JUMPDEST SWAP5 POP PUSH1 0x20 DUP7 ADD MLOAD SWAP4 POP PUSH1 0x40 DUP7 ADD MLOAD SWAP3 POP PUSH1 0x60 DUP7 ADD MLOAD SWAP2 POP PUSH2 0xDF2 PUSH1 0x80 DUP8 ADD PUSH2 0xCE8 JUMP JUMPDEST SWAP1 POP SWAP3 SWAP6 POP SWAP3 SWAP6 SWAP1 SWAP4 POP JUMP JUMPDEST PUSH1 0x0 PUSH1 0x20 DUP3 DUP5 SUB SLT ISZERO PUSH2 0xE0F JUMPI DUP1 DUP2 REVERT JUMPDEST DUP2 MLOAD PUSH1 0xFF DUP2 AND DUP2 EQ PUSH2 0xD1C JUMPI DUP2 DUP3 REVERT JUMPDEST PUSH1 0x1 PUSH1 0x1 PUSH1 0xA0 SHL SUB SWAP2 SWAP1 SWAP2 AND DUP2 MSTORE PUSH1 0x20 ADD SWAP1 JUMP JUMPDEST PUSH1 0x1 PUSH1 0x1 PUSH1 0xA0 SHL SUB SWAP4 DUP5 AND DUP2 MSTORE SWAP2 SWAP1 SWAP3 AND PUSH1 0x20 DUP3 ADD MSTORE PUSH1 0x40 DUP2 ADD SWAP2 SWAP1 SWAP2 MSTORE PUSH1 0x60 ADD SWAP1 JUMP JUMPDEST PUSH1 0x1 PUSH1 0x1 PUSH1 0xA0 SHL SUB SWAP3 SWAP1 SWAP3 AND DUP3 MSTORE PUSH1 0x20 DUP3 ADD MSTORE PUSH1 0x40 ADD SWAP1 JUMP JUMPDEST SWAP1 ISZERO ISZERO DUP2 MSTORE PUSH1 0x20 ADD SWAP1 JUMP JUMPDEST PUSH1 0x20 DUP1 DUP3 MSTORE PUSH1 0x3B SWAP1 DUP3 ADD MSTORE PUSH32 0x4E6F20746F6B656E73207374616B656420666F7220746869732075736572202D PUSH1 0x40 DUP3 ADD MSTORE PUSH32 0x205374616B696E672062616C616E63652063616E277420626520300000000000 PUSH1 0x60 DUP3 ADD MSTORE PUSH1 0x80 ADD SWAP1 JUMP JUMPDEST PUSH1 0x20 DUP1 DUP3 MSTORE PUSH1 0x26 SWAP1 DUP3 ADD MSTORE PUSH32 0x4F776E61626C653A206E6577206F776E657220697320746865207A65726F2061 PUSH1 0x40 DUP3 ADD MSTORE PUSH6 0x646472657373 PUSH1 0xD0 SHL PUSH1 0x60 DUP3 ADD MSTORE PUSH1 0x80 ADD SWAP1 JUMP JUMPDEST PUSH1 0x20 DUP1 DUP3 MSTORE PUSH1 0x14 SWAP1 DUP3 ADD MSTORE PUSH20 0x151BDAD95B881A5CC81B9BDD08185B1B1BDDD959 PUSH1 0x62 SHL PUSH1 0x40 DUP3 ADD MSTORE PUSH1 0x60 ADD SWAP1 JUMP JUMPDEST PUSH1 0x20 DUP1 DUP3 MSTORE PUSH1 0x1D SWAP1 DUP3 ADD MSTORE PUSH32 0x416D6F756E74206D7573742062652067726561746572207468616E2030000000 PUSH1 0x40 DUP3 ADD MSTORE PUSH1 0x60 ADD SWAP1 JUMP JUMPDEST PUSH1 0x20 DUP1 DUP3 MSTORE DUP2 DUP2 ADD MSTORE PUSH32 0x4F776E61626C653A2063616C6C6572206973206E6F7420746865206F776E6572 PUSH1 0x40 DUP3 ADD MSTORE PUSH1 0x60 ADD SWAP1 JUMP JUMPDEST PUSH1 0x20 DUP1 DUP3 MSTORE PUSH1 0x1E SWAP1 DUP3 ADD MSTORE PUSH32 0x4E6F20746F6B656E73207374616B656420666F72207468697320757365720000 PUSH1 0x40 DUP3 ADD MSTORE PUSH1 0x60 ADD SWAP1 JUMP JUMPDEST SWAP1 DUP2 MSTORE PUSH1 0x20 ADD SWAP1 JUMP JUMPDEST SWAP2 DUP3 MSTORE PUSH1 0x20 DUP3 ADD MSTORE PUSH1 0x40 ADD SWAP1 JUMP JUMPDEST PUSH1 0x0 DUP3 NOT DUP3 GT ISZERO PUSH2 0x1019 JUMPI PUSH2 0x1019 PUSH2 0x11A3 JUMP JUMPDEST POP ADD SWAP1 JUMP JUMPDEST PUSH1 0x0 DUP3 PUSH2 0x1039 JUMPI PUSH4 0x4E487B71 PUSH1 0xE0 SHL DUP2 MSTORE PUSH1 0x12 PUSH1 0x4 MSTORE PUSH1 0x24 DUP2 REVERT JUMPDEST POP DIV SWAP1 JUMP JUMPDEST DUP1 DUP3 JUMPDEST PUSH1 0x1 DUP1 DUP7 GT PUSH2 0x1050 JUMPI POP PUSH2 0x107B JUMP JUMPDEST DUP2 DUP8 DIV DUP3 GT ISZERO PUSH2 0x1062 JUMPI PUSH2 0x1062 PUSH2 0x11A3 JUMP JUMPDEST DUP1 DUP7 AND ISZERO PUSH2 0x106F JUMPI SWAP2 DUP2 MUL SWAP2 JUMPDEST SWAP5 SWAP1 SWAP5 SHR SWAP4 DUP1 MUL PUSH2 0x1041 JUMP JUMPDEST SWAP5 POP SWAP5 SWAP3 POP POP POP JUMP JUMPDEST PUSH1 0x0 PUSH2 0xD1C PUSH1 0x0 NOT DUP5 DUP5 PUSH1 0x0 DUP3 PUSH2 0x109D JUMPI POP PUSH1 0x1 PUSH2 0xD1C JUMP JUMPDEST DUP2 PUSH2 0x10AA JUMPI POP PUSH1 0x0 PUSH2 0xD1C JUMP JUMPDEST DUP2 PUSH1 0x1 DUP2 EQ PUSH2 0x10C0 JUMPI PUSH1 0x2 DUP2 EQ PUSH2 0x10CA JUMPI PUSH2 0x10F7 JUMP JUMPDEST PUSH1 0x1 SWAP2 POP POP PUSH2 0xD1C JUMP JUMPDEST PUSH1 0xFF DUP5 GT ISZERO PUSH2 0x10DB JUMPI PUSH2 0x10DB PUSH2 0x11A3 JUMP JUMPDEST PUSH1 0x1 DUP5 SHL SWAP2 POP DUP5 DUP3 GT ISZERO PUSH2 0x10F1 JUMPI PUSH2 0x10F1 PUSH2 0x11A3 JUMP JUMPDEST POP PUSH2 0xD1C JUMP JUMPDEST POP PUSH1 0x20 DUP4 LT PUSH2 0x133 DUP4 LT AND PUSH1 0x4E DUP5 LT PUSH1 0xB DUP5 LT AND OR ISZERO PUSH2 0x112A JUMPI POP DUP2 DUP2 EXP DUP4 DUP2 GT ISZERO PUSH2 0x1125 JUMPI PUSH2 0x1125 PUSH2 0x11A3 JUMP JUMPDEST PUSH2 0xD1C JUMP JUMPDEST PUSH2 0x1137 DUP5 DUP5 DUP5 PUSH1 0x1 PUSH2 0x103E JUMP JUMPDEST DUP1 DUP7 DIV DUP3 GT ISZERO PUSH2 0x1149 JUMPI PUSH2 0x1149 PUSH2 0x11A3 JUMP JUMPDEST MUL SWAP5 SWAP4 POP POP POP POP JUMP JUMPDEST PUSH1 0x0 DUP2 PUSH1 0x0 NOT DIV DUP4 GT DUP3 ISZERO ISZERO AND ISZERO PUSH2 0x116C JUMPI PUSH2 0x116C PUSH2 0x11A3 JUMP JUMPDEST POP MUL SWAP1 JUMP JUMPDEST PUSH1 0x0 DUP3 DUP3 LT ISZERO PUSH2 0x1183 JUMPI PUSH2 0x1183 PUSH2 0x11A3 JUMP JUMPDEST POP SUB SWAP1 JUMP JUMPDEST PUSH1 0x0 PUSH1 0x0 NOT DUP3 EQ ISZERO PUSH2 0x119C JUMPI PUSH2 0x119C PUSH2 0x11A3 JUMP JUMPDEST POP PUSH1 0x1 ADD SWAP1 JUMP JUMPDEST PUSH4 0x4E487B71 PUSH1 0xE0 SHL PUSH1 0x0 MSTORE PUSH1 0x11 PUSH1 0x4 MSTORE PUSH1 0x24 PUSH1 0x0 REVERT INVALID LOG2 PUSH5 0x6970667358 0x22 SLT KECCAK256 0xF INVALID 0x4E SWAP10 0xC DUP13 0xBC 0xAA 0xD2 POP DUP2 PUSH11 0xC69612B2D0133FBA974B7B PUSH32 0x8F6BD7FBEC5EB65664736F6C6343000800003300000000000000000000000000 ",
  "sha1": "41573318b9b3f600b99fc191d508856a5b3c5f65",
  "source": "// SPDX-License-Identifier: MIT\npragma solidity ^0.8.0;\n\nimport \"@openzeppelin/contracts/access/Ownable.sol\";\nimport \"@openzeppelin/contracts/token/ERC20/IERC20.sol\";\nimport \"@chainlink/contracts/src/v0.8/interfaces/AggregatorV3Interface.sol\";\n\ncontract TokenFarm is Ownable {\n    // stake tokens\n    // unStake tokens\n    // issueTokens          (Issue rewards)\n    // addAllowedTokens     (add more tokens)\n    // getEthValue\n\n    // mapping token address -> staker address -> amount\n    mapping(address => mapping(address => uint256)) public stakingBalance; // for setting the stake balance of the token of user address\n    mapping(address => uint256) public uniqueTokenStaked; // for maintain the uniqueness of stakers array and also for counting how many unique tokens a user have\n    mapping(address => address) public tokenPriceFeedMapping; // token price feed mapping  token address and price feed address from where we will get the price data (LIKE ETH/USD => Eth token address address and price feed address from where we get the eth value)\n    address[] public stakers; // Unique stakers array (this array uniqueness is maintained by uniqueTokenStaked mapping)\n    address[] public allowedTokens; // Allowed tokens array means which tokens are allowed to staked\n    IERC20 public dappToken; // Dapp token contract address\n\n    constructor(address _dappTokenAddress) {\n        dappToken = IERC20(_dappTokenAddress);\n    }\n\n    // Setting different token address with it's price feed (After for using with V3 Aggregator)\n    function setPriceFeedContract(address _token, address _priceeFeed)\n        public\n        onlyOwner\n    {\n        tokenPriceFeedMapping[_token] = _priceeFeed;\n    }\n\n    // So we are doing how much total value user has staked on this platform we will issue them equilent amount as award\n    function issueToken() public onlyOwner {\n        for (uint256 i = 0; i < stakers.length; i++) {\n            address recipient = stakers[i];\n            uint256 userTotalValue = getUserTotalValue(recipient);\n            // Basically here we ASSUMED our DAPP token value equals to ETH value\n            dappToken.transfer(recipient, userTotalValue);\n        }\n    }\n\n    function getUserTotalValue(address _user) public view returns (uint256) {\n        uint256 totalValue = 0;\n        require(uniqueTokenStaked[_user] > 0, \"No tokens staked for this user\");\n        for (uint256 i = 0; i < allowedTokens.length; i++) {\n            totalValue =\n                totalValue +\n                getUserSingleTokenValue(_user, allowedTokens[i]);\n        }\n        return totalValue;\n    }\n\n    // get the value of a single token by converting from decimals to real\n    function getUserSingleTokenValue(address _user, address _token)\n        public\n        view\n        returns (uint256)\n    {\n        if (uniqueTokenStaked[_user] <= 0) {\n            return 0;\n        }\n        (uint256 price, uint256 decimals) = getTokenValue(_token);\n        // Because eth price has some decimal values so we need to convert it to real by dividing it by 10^decimals\n        // stakingBalance[_token][_user] (total token amount * amount) // if zero amount there then amount will be sent zero for that token value\n        return (stakingBalance[_token][_user] * price) / (10**decimals);\n    }\n\n    // get the 1 token value from the real world using V3 Aggregator\n    function getTokenValue(address _token)\n        public\n        view\n        returns (uint256, uint256)\n    {\n        // priceFeedAddress\n        address priceFeedAddress = tokenPriceFeedMapping[_token];\n        AggregatorV3Interface priceFeed = AggregatorV3Interface(\n            priceFeedAddress\n        );\n        (, int256 price, , , ) = priceFeed.latestRoundData();\n        uint256 decimals = uint256(priceFeed.decimals()); // getting decimals of that pricefeed value\n        return (uint256(price), decimals);\n    }\n\n    // Staking tokens\n    function stakeTokens(uint256 _amount, address _token) public {\n        require(_amount > 0, \"Amount must be greater than 0\");\n        require(tokenIsAllowed(_token), \"Token is not allowed\");\n        // Send token from Msg.sender to this contract\n        IERC20(_token).transferFrom(msg.sender, address(this), _amount);\n        updateUniqueTokenStaked(msg.sender, _token);\n        stakingBalance[_token][msg.sender] =\n            stakingBalance[_token][msg.sender] +\n            _amount;\n\n        // Just for filling the tokens staked address so that we know who staked the tokens\n        // for remove duplicaly we used this approach so that if uniqueToken values goes above means this person is already in our list\n        if (uniqueTokenStaked[msg.sender] == 1) {\n            stakers.push(msg.sender);\n        }\n    }\n\n    function updateUniqueTokenStaked(address _user, address _token) internal {\n        if (stakingBalance[_token][_user] <= 0) {\n            uniqueTokenStaked[_user] = uniqueTokenStaked[_user] + 1;\n        }\n    }\n\n    function addAllowedTokens(address _token) public onlyOwner {\n        allowedTokens.push(_token);\n    }\n\n    function tokenIsAllowed(address _token) public view returns (bool) {\n        for (uint256 i = 0; i < allowedTokens.length; i++) {\n            if (allowedTokens[i] == _token) {\n                return true;\n            }\n        }\n        return false;\n    }\n\n    function unstakeTokens(address _token) public {\n        uint256 balance = stakingBalance[_token][msg.sender];\n        require(\n            balance > 0,\n            \"No tokens staked for this user - Staking balance can't be 0\"\n        );\n        // Send token from this contract to Msg.sender\n        IERC20(_token).transfer(msg.sender, balance);\n        stakingBalance[_token][msg.sender] = 0;\n        uniqueTokenStaked[msg.sender] = uniqueTokenStaked[msg.sender] - 1;\n\n        // remove from stakers array\n        if (uniqueTokenStaked[msg.sender] == 0) {\n            uint256 selectedIndex = 0;\n            for (uint256 i = 0; i < stakers.length; i++) {\n                if (stakers[i] == msg.sender) {\n                    selectedIndex = i;\n                }\n            }\n            delete stakers[selectedIndex];\n        }\n    }\n}\n",
  "sourcePath": "contracts/TokenFarm.sol",
  "type": "contract"
}